{
  "_format": "hh-sol-artifact-1",
  "contractName": "Workout",
  "sourceName": "contracts/Workout.sol",
  "abi": [
    {
      "inputs": [],
      "stateMutability": "nonpayable",
      "type": "constructor"
    },
    {
      "inputs": [
        {
          "internalType": "address",
          "name": "",
          "type": "address"
        }
      ],
      "name": "database",
      "outputs": [
        {
          "internalType": "address",
          "name": "id",
          "type": "address"
        },
        {
          "internalType": "uint256",
          "name": "totalMiles",
          "type": "uint256"
        },
        {
          "internalType": "uint256",
          "name": "totalMilesFract",
          "type": "uint256"
        },
        {
          "internalType": "uint256",
          "name": "totalHours",
          "type": "uint256"
        },
        {
          "internalType": "uint256",
          "name": "totalMinutes",
          "type": "uint256"
        },
        {
          "internalType": "uint256",
          "name": "totalSeconds",
          "type": "uint256"
        },
        {
          "internalType": "uint256",
          "name": "longestRunMiles",
          "type": "uint256"
        },
        {
          "internalType": "uint256",
          "name": "longestRunFract",
          "type": "uint256"
        },
        {
          "internalType": "uint256",
          "name": "numberRuns",
          "type": "uint256"
        },
        {
          "internalType": "bool",
          "name": "exists",
          "type": "bool"
        }
      ],
      "stateMutability": "view",
      "type": "function"
    },
    {
      "inputs": [],
      "name": "getMyRuns",
      "outputs": [
        {
          "internalType": "uint256",
          "name": "",
          "type": "uint256"
        },
        {
          "internalType": "uint256",
          "name": "",
          "type": "uint256"
        },
        {
          "internalType": "uint256",
          "name": "",
          "type": "uint256"
        },
        {
          "internalType": "uint256",
          "name": "",
          "type": "uint256"
        },
        {
          "internalType": "uint256",
          "name": "",
          "type": "uint256"
        },
        {
          "internalType": "uint256",
          "name": "",
          "type": "uint256"
        },
        {
          "internalType": "uint256",
          "name": "",
          "type": "uint256"
        },
        {
          "internalType": "uint256",
          "name": "",
          "type": "uint256"
        }
      ],
      "stateMutability": "view",
      "type": "function"
    },
    {
      "inputs": [
        {
          "internalType": "address",
          "name": "",
          "type": "address"
        },
        {
          "internalType": "uint256",
          "name": "",
          "type": "uint256"
        }
      ],
      "name": "log",
      "outputs": [
        {
          "internalType": "uint256",
          "name": "miles",
          "type": "uint256"
        },
        {
          "internalType": "uint256",
          "name": "timeH",
          "type": "uint256"
        },
        {
          "internalType": "uint256",
          "name": "timeM",
          "type": "uint256"
        },
        {
          "internalType": "uint256",
          "name": "timeS",
          "type": "uint256"
        },
        {
          "internalType": "bool",
          "name": "exists",
          "type": "bool"
        }
      ],
      "stateMutability": "view",
      "type": "function"
    },
    {
      "inputs": [
        {
          "internalType": "uint256",
          "name": "distanceRanMiles",
          "type": "uint256"
        },
        {
          "internalType": "uint256",
          "name": "distanceRanFract",
          "type": "uint256"
        },
        {
          "internalType": "uint256",
          "name": "hrs",
          "type": "uint256"
        },
        {
          "internalType": "uint256",
          "name": "mins",
          "type": "uint256"
        },
        {
          "internalType": "uint256",
          "name": "secs",
          "type": "uint256"
        }
      ],
      "name": "logExercise",
      "outputs": [],
      "stateMutability": "nonpayable",
      "type": "function"
    },
    {
      "inputs": [
        {
          "internalType": "address",
          "name": "",
          "type": "address"
        }
      ],
      "name": "rewards",
      "outputs": [
        {
          "internalType": "bool",
          "name": "mile1",
          "type": "bool"
        },
        {
          "internalType": "bool",
          "name": "mile25",
          "type": "bool"
        },
        {
          "internalType": "bool",
          "name": "mile75",
          "type": "bool"
        },
        {
          "internalType": "bool",
          "name": "mile150",
          "type": "bool"
        },
        {
          "internalType": "bool",
          "name": "mile250",
          "type": "bool"
        },
        {
          "internalType": "bool",
          "name": "mile500",
          "type": "bool"
        },
        {
          "internalType": "bool",
          "name": "mile750",
          "type": "bool"
        },
        {
          "internalType": "bool",
          "name": "mile1000",
          "type": "bool"
        },
        {
          "internalType": "bool",
          "name": "exists",
          "type": "bool"
        }
      ],
      "stateMutability": "view",
      "type": "function"
    },
    {
      "inputs": [
        {
          "internalType": "address",
          "name": "person",
          "type": "address"
        },
        {
          "internalType": "uint256",
          "name": "distanceRanMiles",
          "type": "uint256"
        },
        {
          "internalType": "uint256",
          "name": "distanceRanFract",
          "type": "uint256"
        }
      ],
      "name": "rollovers",
      "outputs": [],
      "stateMutability": "nonpayable",
      "type": "function"
    },
    {
      "inputs": [
        {
          "internalType": "address",
          "name": "person",
          "type": "address"
        }
      ],
      "name": "updateRewards",
      "outputs": [],
      "stateMutability": "nonpayable",
      "type": "function"
    }
  ],
  "bytecode": "0x60806040523480156200001157600080fd5b506200005d6040518060400160405280601781526020017f0a57656c636f6d6520746f204d696c6573746f6e65732e0000000000000000008152506200006360201b62001de51760201c565b620001ed565b62000103816040516024016200007a9190620001c9565b6040516020818303038152906040527f41304fac000000000000000000000000000000000000000000000000000000007bffffffffffffffffffffffffffffffffffffffffffffffffffffffff19166020820180517bffffffffffffffffffffffffffffffffffffffffffffffffffffffff83818316178352505050506200010660201b60201c565b50565b60008151905060006a636f6e736f6c652e6c6f679050602083016000808483855afa5050505050565b600081519050919050565b600082825260208201905092915050565b60005b838110156200016b5780820151818401526020810190506200014e565b60008484015250505050565b6000601f19601f8301169050919050565b600062000195826200012f565b620001a181856200013a565b9350620001b38185602086016200014b565b620001be8162000177565b840191505092915050565b60006020820190508181036000830152620001e5818462000188565b905092915050565b6128a780620001fd6000396000f3fe608060405234801561001057600080fd5b506004361061007d5760003560e01c8063500de7cc1161005b578063500de7cc146101185780635fd61965146101345780638309e8a8146101505780639088e7ed146101845761007d565b80630700037d146100825780631d3325db146100ba5780632bfe932e146100f3575b600080fd5b61009c60048036038101906100979190611f0a565b6101a0565b6040516100b199989796959493929190611f52565b60405180910390f35b6100d460048036038101906100cf9190611f0a565b610263565b6040516100ea9a99989796959493929190612007565b60405180910390f35b6100fb6102e4565b60405161010f9897969594939291906120a3565b60405180910390f35b610132600480360381019061012d919061214d565b610520565b005b61014e60048036038101906101499190611f0a565b610e29565b005b61016a600480360381019061016591906121c8565b61175f565b60405161017b959493929190612208565b60405180910390f35b61019e6004803603810190610199919061225b565b6117bf565b005b60026020528060005260406000206000915090508060000160009054906101000a900460ff16908060000160019054906101000a900460ff16908060000160029054906101000a900460ff16908060000160039054906101000a900460ff16908060000160049054906101000a900460ff16908060000160059054906101000a900460ff16908060000160069054906101000a900460ff16908060000160079054906101000a900460ff16908060000160089054906101000a900460ff16905089565b60006020528060005260406000206000915090508060000160009054906101000a900473ffffffffffffffffffffffffffffffffffffffff16908060010154908060020154908060030154908060040154908060050154908060060154908060070154908060080154908060090160009054906101000a900460ff1690508a565b60008060008060008060008060003390506000808273ffffffffffffffffffffffffffffffffffffffff1673ffffffffffffffffffffffffffffffffffffffff168152602001908152602001600020600101546000808373ffffffffffffffffffffffffffffffffffffffff1673ffffffffffffffffffffffffffffffffffffffff168152602001908152602001600020600201546000808473ffffffffffffffffffffffffffffffffffffffff1673ffffffffffffffffffffffffffffffffffffffff168152602001908152602001600020600301546000808573ffffffffffffffffffffffffffffffffffffffff1673ffffffffffffffffffffffffffffffffffffffff168152602001908152602001600020600401546000808673ffffffffffffffffffffffffffffffffffffffff1673ffffffffffffffffffffffffffffffffffffffff168152602001908152602001600020600501546000808773ffffffffffffffffffffffffffffffffffffffff1673ffffffffffffffffffffffffffffffffffffffff168152602001908152602001600020600801546000808873ffffffffffffffffffffffffffffffffffffffff1673ffffffffffffffffffffffffffffffffffffffff168152602001908152602001600020600601546000808973ffffffffffffffffffffffffffffffffffffffff1673ffffffffffffffffffffffffffffffffffffffff1681526020019081526020016000206007015498509850985098509850985098509850509091929394959697565b6000803373ffffffffffffffffffffffffffffffffffffffff1673ffffffffffffffffffffffffffffffffffffffff16815260200190815260200160002060090160009054906101000a900460ff16610893576040518061014001604052803373ffffffffffffffffffffffffffffffffffffffff1681526020016000815260200160008152602001600081526020016000815260200160008152602001600081526020016000815260200160008152602001600115158152506000803373ffffffffffffffffffffffffffffffffffffffff1673ffffffffffffffffffffffffffffffffffffffff16815260200190815260200160002060008201518160000160006101000a81548173ffffffffffffffffffffffffffffffffffffffff021916908373ffffffffffffffffffffffffffffffffffffffff1602179055506020820151816001015560408201518160020155606082015181600301556080820151816004015560a0820151816005015560c0820151816006015560e0820151816007015561010082015181600801556101208201518160090160006101000a81548160ff02191690831515021790555090505060405180610120016040528060001515815260200160001515815260200160001515815260200160001515815260200160001515815260200160001515815260200160001515815260200160001515815260200160011515815250600260003373ffffffffffffffffffffffffffffffffffffffff1673ffffffffffffffffffffffffffffffffffffffff16815260200190815260200160002060008201518160000160006101000a81548160ff02191690831515021790555060208201518160000160016101000a81548160ff02191690831515021790555060408201518160000160026101000a81548160ff02191690831515021790555060608201518160000160036101000a81548160ff02191690831515021790555060808201518160000160046101000a81548160ff02191690831515021790555060a08201518160000160056101000a81548160ff02191690831515021790555060c08201518160000160066101000a81548160ff02191690831515021790555060e08201518160000160076101000a81548160ff0219169083151502179055506101008201518160000160086101000a81548160ff0219169083151502179055509050505b6000803373ffffffffffffffffffffffffffffffffffffffff1673ffffffffffffffffffffffffffffffffffffffff16815260200190815260200160002060090160009054906101000a900460ff16610921576040517f08c379a00000000000000000000000000000000000000000000000000000000081526004016109189061230b565b60405180910390fd5b6000851015610965576040517f08c379a000000000000000000000000000000000000000000000000000000000815260040161095c9061239d565b60405180910390fd5b60008410156109a9576040517f08c379a00000000000000000000000000000000000000000000000000000000081526004016109a09061239d565b60405180910390fd5b6000841415806109ba575060008514155b6109f9576040517f08c379a00000000000000000000000000000000000000000000000000000000081526004016109f090612409565b60405180910390fd5b6000831015610a3d576040517f08c379a0000000000000000000000000000000000000000000000000000000008152600401610a349061249b565b60405180910390fd5b6000821015610a81576040517f08c379a0000000000000000000000000000000000000000000000000000000008152600401610a789061249b565b60405180910390fd5b6000811015610ac5576040517f08c379a0000000000000000000000000000000000000000000000000000000008152600401610abc9061249b565b60405180910390fd5b600083141580610ad6575060008214155b80610ae2575060008114155b610b21576040517f08c379a0000000000000000000000000000000000000000000000000000000008152600401610b189061252d565b60405180910390fd5b600160003373ffffffffffffffffffffffffffffffffffffffff1673ffffffffffffffffffffffffffffffffffffffff1681526020019081526020016000206040518060a001604052808781526020018581526020018481526020018381526020016001151581525090806001815401808255809150506001900390600052602060002090600502016000909190919091506000820151816000015560208201518160010155604082015181600201556060820151816003015560808201518160040160006101000a81548160ff0219169083151502179055505050846000803373ffffffffffffffffffffffffffffffffffffffff1673ffffffffffffffffffffffffffffffffffffffff1681526020019081526020016000206001016000828254610c4e919061257c565b92505081905550836000803373ffffffffffffffffffffffffffffffffffffffff1673ffffffffffffffffffffffffffffffffffffffff1681526020019081526020016000206002016000828254610ca6919061257c565b92505081905550826000803373ffffffffffffffffffffffffffffffffffffffff1673ffffffffffffffffffffffffffffffffffffffff1681526020019081526020016000206003016000828254610cfe919061257c565b92505081905550816000803373ffffffffffffffffffffffffffffffffffffffff1673ffffffffffffffffffffffffffffffffffffffff1681526020019081526020016000206004016000828254610d56919061257c565b92505081905550806000803373ffffffffffffffffffffffffffffffffffffffff1673ffffffffffffffffffffffffffffffffffffffff1681526020019081526020016000206005016000828254610dae919061257c565b9250508190555060016000803373ffffffffffffffffffffffffffffffffffffffff1673ffffffffffffffffffffffffffffffffffffffff1681526020019081526020016000206008016000828254610e07919061257c565b92505081905550610e193386866117bf565b610e2233610e29565b5050505050565b60016000808373ffffffffffffffffffffffffffffffffffffffff1673ffffffffffffffffffffffffffffffffffffffff16815260200190815260200160002060060154118015610ecd575060001515600260008373ffffffffffffffffffffffffffffffffffffffff1673ffffffffffffffffffffffffffffffffffffffff16815260200190815260200160002060000160009054906101000a900460ff161515145b15610f4f576001600260008373ffffffffffffffffffffffffffffffffffffffff1673ffffffffffffffffffffffffffffffffffffffff16815260200190815260200160002060000160006101000a81548160ff021916908315150217905550610f4e60405180606001604052806032815260200161274660329139611de5565b5b60196000808373ffffffffffffffffffffffffffffffffffffffff1673ffffffffffffffffffffffffffffffffffffffff16815260200190815260200160002060060154118015610ff3575060001515600260008373ffffffffffffffffffffffffffffffffffffffff1673ffffffffffffffffffffffffffffffffffffffff16815260200190815260200160002060000160019054906101000a900460ff161515145b15611075576001600260008373ffffffffffffffffffffffffffffffffffffffff1673ffffffffffffffffffffffffffffffffffffffff16815260200190815260200160002060000160016101000a81548160ff02191690831515021790555061107460405180606001604052806031815260200161271560319139611de5565b5b604b6000808373ffffffffffffffffffffffffffffffffffffffff1673ffffffffffffffffffffffffffffffffffffffff16815260200190815260200160002060060154118015611119575060001515600260008373ffffffffffffffffffffffffffffffffffffffff1673ffffffffffffffffffffffffffffffffffffffff16815260200190815260200160002060000160029054906101000a900460ff161515145b1561119b576001600260008373ffffffffffffffffffffffffffffffffffffffff1673ffffffffffffffffffffffffffffffffffffffff16815260200190815260200160002060000160026101000a81548160ff02191690831515021790555061119a60405180606001604052806031815260200161280e60319139611de5565b5b60966000808373ffffffffffffffffffffffffffffffffffffffff1673ffffffffffffffffffffffffffffffffffffffff1681526020019081526020016000206006015411801561123f575060001515600260008373ffffffffffffffffffffffffffffffffffffffff1673ffffffffffffffffffffffffffffffffffffffff16815260200190815260200160002060000160039054906101000a900460ff161515145b156112c1576001600260008373ffffffffffffffffffffffffffffffffffffffff1673ffffffffffffffffffffffffffffffffffffffff16815260200190815260200160002060000160036101000a81548160ff0219169083151502179055506112c06040518060600160405280603281526020016127dc60329139611de5565b5b60fa6000808373ffffffffffffffffffffffffffffffffffffffff1673ffffffffffffffffffffffffffffffffffffffff16815260200190815260200160002060060154118015611365575060001515600260008373ffffffffffffffffffffffffffffffffffffffff1673ffffffffffffffffffffffffffffffffffffffff16815260200190815260200160002060000160049054906101000a900460ff161515145b156113e7576001600260008373ffffffffffffffffffffffffffffffffffffffff1673ffffffffffffffffffffffffffffffffffffffff16815260200190815260200160002060000160046101000a81548160ff0219169083151502179055506113e66040518060600160405280603281526020016126e360329139611de5565b5b6101f46000808373ffffffffffffffffffffffffffffffffffffffff1673ffffffffffffffffffffffffffffffffffffffff1681526020019081526020016000206006015411801561148c575060001515600260008373ffffffffffffffffffffffffffffffffffffffff1673ffffffffffffffffffffffffffffffffffffffff16815260200190815260200160002060000160059054906101000a900460ff161515145b1561150e576001600260008373ffffffffffffffffffffffffffffffffffffffff1673ffffffffffffffffffffffffffffffffffffffff16815260200190815260200160002060000160056101000a81548160ff02191690831515021790555061150d6040518060600160405280603281526020016127aa60329139611de5565b5b6102ee6000808373ffffffffffffffffffffffffffffffffffffffff1673ffffffffffffffffffffffffffffffffffffffff168152602001908152602001600020600601541180156115b3575060001515600260008373ffffffffffffffffffffffffffffffffffffffff1673ffffffffffffffffffffffffffffffffffffffff16815260200190815260200160002060000160069054906101000a900460ff161515145b15611635576001600260008373ffffffffffffffffffffffffffffffffffffffff1673ffffffffffffffffffffffffffffffffffffffff16815260200190815260200160002060000160066101000a81548160ff02191690831515021790555061163460405180606001604052806032815260200161277860329139611de5565b5b6103e86000808373ffffffffffffffffffffffffffffffffffffffff1673ffffffffffffffffffffffffffffffffffffffff168152602001908152602001600020600601541180156116da575060001515600260008373ffffffffffffffffffffffffffffffffffffffff1673ffffffffffffffffffffffffffffffffffffffff16815260200190815260200160002060000160079054906101000a900460ff161515145b1561175c576001600260008373ffffffffffffffffffffffffffffffffffffffff1673ffffffffffffffffffffffffffffffffffffffff16815260200190815260200160002060000160076101000a81548160ff02191690831515021790555061175b60405180606001604052806033815260200161283f60339139611de5565b5b50565b6001602052816000526040600020818154811061177b57600080fd5b9060005260206000209060050201600091509150508060000154908060010154908060020154908060030154908060040160009054906101000a900460ff16905085565b603c6000808573ffffffffffffffffffffffffffffffffffffffff1673ffffffffffffffffffffffffffffffffffffffff168152602001908152602001600020600501541061194157603c6000808573ffffffffffffffffffffffffffffffffffffffff1673ffffffffffffffffffffffffffffffffffffffff1681526020019081526020016000206005015461185691906125df565b6000808573ffffffffffffffffffffffffffffffffffffffff1673ffffffffffffffffffffffffffffffffffffffff16815260200190815260200160002060040160008282546118a6919061257c565b92505081905550603c6000808573ffffffffffffffffffffffffffffffffffffffff1673ffffffffffffffffffffffffffffffffffffffff168152602001908152602001600020600501546118fb9190612610565b6000808573ffffffffffffffffffffffffffffffffffffffff1673ffffffffffffffffffffffffffffffffffffffff168152602001908152602001600020600501819055505b603c6000808573ffffffffffffffffffffffffffffffffffffffff1673ffffffffffffffffffffffffffffffffffffffff1681526020019081526020016000206004015410611ac357603c6000808573ffffffffffffffffffffffffffffffffffffffff1673ffffffffffffffffffffffffffffffffffffffff168152602001908152602001600020600401546119d891906125df565b6000808573ffffffffffffffffffffffffffffffffffffffff1673ffffffffffffffffffffffffffffffffffffffff1681526020019081526020016000206003016000828254611a28919061257c565b92505081905550603c6000808573ffffffffffffffffffffffffffffffffffffffff1673ffffffffffffffffffffffffffffffffffffffff16815260200190815260200160002060040154611a7d9190612610565b6000808573ffffffffffffffffffffffffffffffffffffffff1673ffffffffffffffffffffffffffffffffffffffff168152602001908152602001600020600401819055505b60646000808573ffffffffffffffffffffffffffffffffffffffff1673ffffffffffffffffffffffffffffffffffffffff1681526020019081526020016000206002015410611c455760646000808573ffffffffffffffffffffffffffffffffffffffff1673ffffffffffffffffffffffffffffffffffffffff16815260200190815260200160002060020154611b5a91906125df565b6000808573ffffffffffffffffffffffffffffffffffffffff1673ffffffffffffffffffffffffffffffffffffffff1681526020019081526020016000206001016000828254611baa919061257c565b9250508190555060646000808573ffffffffffffffffffffffffffffffffffffffff1673ffffffffffffffffffffffffffffffffffffffff16815260200190815260200160002060020154611bff9190612610565b6000808573ffffffffffffffffffffffffffffffffffffffff1673ffffffffffffffffffffffffffffffffffffffff168152602001908152602001600020600201819055505b611c836040518060400160405280601c81526020017f0a576f726b6f7574207375636365737366756c6c792061646465642100000000815250611de5565b806000808573ffffffffffffffffffffffffffffffffffffffff1673ffffffffffffffffffffffffffffffffffffffff168152602001908152602001600020600701541015611de057816000808573ffffffffffffffffffffffffffffffffffffffff1673ffffffffffffffffffffffffffffffffffffffff1681526020019081526020016000206006015411611ddf57816000808573ffffffffffffffffffffffffffffffffffffffff1673ffffffffffffffffffffffffffffffffffffffff16815260200190815260200160002060060181905550806000808573ffffffffffffffffffffffffffffffffffffffff1673ffffffffffffffffffffffffffffffffffffffff16815260200190815260200160002060070181905550611dde6040518060400160405280601581526020017f0a4e65772064697374616e6365207265636f7264210000000000000000000000815250611de5565b5b5b505050565b611e7b81604051602401611df991906126c0565b6040516020818303038152906040527f41304fac000000000000000000000000000000000000000000000000000000007bffffffffffffffffffffffffffffffffffffffffffffffffffffffff19166020820180517bffffffffffffffffffffffffffffffffffffffffffffffffffffffff8381831617835250505050611e7e565b50565b60008151905060006a636f6e736f6c652e6c6f679050602083016000808483855afa5050505050565b600080fd5b600073ffffffffffffffffffffffffffffffffffffffff82169050919050565b6000611ed782611eac565b9050919050565b611ee781611ecc565b8114611ef257600080fd5b50565b600081359050611f0481611ede565b92915050565b600060208284031215611f2057611f1f611ea7565b5b6000611f2e84828501611ef5565b91505092915050565b60008115159050919050565b611f4c81611f37565b82525050565b600061012082019050611f68600083018c611f43565b611f75602083018b611f43565b611f82604083018a611f43565b611f8f6060830189611f43565b611f9c6080830188611f43565b611fa960a0830187611f43565b611fb660c0830186611f43565b611fc360e0830185611f43565b611fd1610100830184611f43565b9a9950505050505050505050565b611fe881611ecc565b82525050565b6000819050919050565b61200181611fee565b82525050565b60006101408201905061201d600083018d611fdf565b61202a602083018c611ff8565b612037604083018b611ff8565b612044606083018a611ff8565b6120516080830189611ff8565b61205e60a0830188611ff8565b61206b60c0830187611ff8565b61207860e0830186611ff8565b612086610100830185611ff8565b612094610120830184611f43565b9b9a5050505050505050505050565b6000610100820190506120b9600083018b611ff8565b6120c6602083018a611ff8565b6120d36040830189611ff8565b6120e06060830188611ff8565b6120ed6080830187611ff8565b6120fa60a0830186611ff8565b61210760c0830185611ff8565b61211460e0830184611ff8565b9998505050505050505050565b61212a81611fee565b811461213557600080fd5b50565b60008135905061214781612121565b92915050565b600080600080600060a0868803121561216957612168611ea7565b5b600061217788828901612138565b955050602061218888828901612138565b945050604061219988828901612138565b93505060606121aa88828901612138565b92505060806121bb88828901612138565b9150509295509295909350565b600080604083850312156121df576121de611ea7565b5b60006121ed85828601611ef5565b92505060206121fe85828601612138565b9150509250929050565b600060a08201905061221d6000830188611ff8565b61222a6020830187611ff8565b6122376040830186611ff8565b6122446060830185611ff8565b6122516080830184611f43565b9695505050505050565b60008060006060848603121561227457612273611ea7565b5b600061228286828701611ef5565b935050602061229386828701612138565b92505060406122a486828701612138565b9150509250925092565b600082825260208201905092915050565b7f49737375652077697468206372656174696e67207468697320757365722e0000600082015250565b60006122f5601e836122ae565b9150612300826122bf565b602082019050919050565b60006020820190508181036000830152612324816122e8565b9050919050565b7f596f752063616e6e6f742072756e2061206e656761746976652064697374616e60008201527f63652e0000000000000000000000000000000000000000000000000000000000602082015250565b60006123876023836122ae565b91506123928261232b565b604082019050919050565b600060208201905081810360008301526123b68161237a565b9050919050565b7f596f75206d7573742072756e206f76657220302e30206d696c65732e00000000600082015250565b60006123f3601c836122ae565b91506123fe826123bd565b602082019050919050565b60006020820190508181036000830152612422816123e6565b9050919050565b7f596f752063616e6e6f7420696e7075742061206e656761746976652074696d6560008201527f2e00000000000000000000000000000000000000000000000000000000000000602082015250565b60006124856021836122ae565b915061249082612429565b604082019050919050565b600060208201905081810360008301526124b481612478565b9050919050565b7f596f75206d75737420696e70757420612074696d65206772656174657220746860008201527f616e20303a30303a30302e000000000000000000000000000000000000000000602082015250565b6000612517602b836122ae565b9150612522826124bb565b604082019050919050565b600060208201905081810360008301526125468161250a565b9050919050565b7f4e487b7100000000000000000000000000000000000000000000000000000000600052601160045260246000fd5b600061258782611fee565b915061259283611fee565b92508282019050808211156125aa576125a961254d565b5b92915050565b7f4e487b7100000000000000000000000000000000000000000000000000000000600052601260045260246000fd5b60006125ea82611fee565b91506125f583611fee565b925082612605576126046125b0565b5b828204905092915050565b600061261b82611fee565b915061262683611fee565b925082612636576126356125b0565b5b828206905092915050565b600081519050919050565b60005b8381101561266a57808201518184015260208101905061264f565b60008484015250505050565b6000601f19601f8301169050919050565b600061269282612641565b61269c81856122ae565b93506126ac81856020860161264c565b6126b581612676565b840191505092915050565b600060208201905081810360008301526126da8184612687565b90509291505056fe4e6577206d696c6573746f6e6520726561636865642120596f752776652072756e20796f7572203235307468206d696c65214e6577206d696c6573746f6e6520726561636865642120596f752776652072756e20796f75722032357468206d696c65214e6577206d696c6573746f6e6520726561636865642120596f752776652072756e20796f7572206669727374206d696c65214e6577206d696c6573746f6e6520726561636865642120596f752776652072756e20796f7572203735307468206d696c65214e6577206d696c6573746f6e6520726561636865642120596f752776652072756e20796f7572203530307468206d696c65214e6577206d696c6573746f6e6520726561636865642120596f752776652072756e20796f7572203135307468206d696c65214e6577206d696c6573746f6e6520726561636865642120596f752776652072756e20796f75722037357468206d696c65214e6577206d696c6573746f6e6520726561636865642120596f752776652072756e20796f757220313030307468206d696c6521a26469706673582212202aae3e7a2498dfb3da4f28914e634dde139b0ea133b341fc91f0109a0ca8e43764736f6c63430008120033",
  "linkReferences": {},
  "deployedLinkReferences": {}
}